:020000040800F2
:1000000000800120D16100086125000867250008F3
:100010006D25000873250008792500080000000000
:100020000000000000000000000000007F25000824
:100030008D250008000000009B250008A925000868
:100040002162000821620008216200082162000884
:100050002162000821620008216200082162000874
:100060002162000821620008216200082162000864
:100070002162000821620008216200082162000854
:100080002162000821620008216200082162000844
:100090002162000821620008216200082162000834
:1000A0002162000821620008216200082162000824
:1000B0002162000821620008216200082162000814
:1000C0002162000821620008216200082162000804
:1000D00021620008B525000821620008216200089D
:1000E00021620008216200082162000821620008E4
:1000F00021620008216200082162000821620008D4
:100100002162000821620008C92500082162000858
:1001100021620008216200082162000821620008B3
:1001200021620008216200082162000821620008A3
:100130002162000821620008216200082162000893
:100140002162000821620008216200082162000883
:100150002162000821620008216200082162000873
:100160002162000821620008216200082162000863
:100170002162000821620008000000000000000069
:08018000216200082162000861
:1001C00010B5054C237833B9044B13B10448AFF391
:1001D00000800123237010BD080A002000000000E9
:1001E000B0C1000808B5034B1BB103490348AFF386
:1001F000008008BD000000000C0A0020B0C100080B
:1002000081F0004102E000BF83F0004330B54FEAC7
:1002100041044FEA430594EA050F08BF90EA020F34
:100220001FBF54EA000C55EA020C7FEA645C7FEAC7
:10023000655C00F0E2804FEA5454D4EB5555B8BFEA
:100240006D420CDD2C4480EA020281EA030382EA5B
:10025000000083EA010180EA020281EA0303362DED
:1002600088BF30BD11F0004F4FEA01314FF4801CC0
:100270004CEA113102D0404261EB410113F0004FD2
:100280004FEA03334CEA133302D0524263EB430389
:1002900094EA050F00F0A780A4F10104D5F1200E27
:1002A0000DDB02FA0EFC22FA05F2801841F1000182
:1002B00003FA0EF2801843FA05F359410EE0A5F156
:1002C00020050EF1200E012A03FA0EFC28BF4CF087
:1002D000020C43FA05F3C01851EBE37101F000453D
:1002E00007D54FF0000EDCF1000C7EEB00006EEB4A
:1002F0000101B1F5801F1BD3B1F5001F0CD34908D4
:100300005FEA30004FEA3C0C04F101044FEA44522A
:1003100012F5800F80F09A80BCF1004F08BF5FEAB1
:10032000500C50F1000041EB045141EA050130BD91
:100330005FEA4C0C404141EB0101013C28BFB1F5A3
:10034000801FE9D291F0000F04BF01460020B1FAEE
:1003500081F308BF2033A3F10B03B3F120020CDAC1
:100360000C3208DD02F1140CC2F10C0201FA0CF09F
:1003700021FA02F10CE002F11402D8BFC2F1200C04
:1003800001FA02F120FA0CFCDCBF41EA0C019040BA
:10039000E41AA2BF01EB0451294330BD6FEA040403
:1003A0001F3C1CDA0C340EDC04F11404C4F12002EE
:1003B00020FA04F001FA02F340EA030021FA04F300
:1003C00045EA030130BDC4F10C04C4F1200220FA57
:1003D00002F001FA04F340EA0300294630BD21FA95
:1003E00004F0294630BD94F0000F83F4801306BF5B
:1003F00081F480110134013D4EE77FEA645C18BF4F
:100400007FEA655C29D094EA050F08BF90EA020FE5
:1004100005D054EA000C04BF1946104630BD91EADD
:10042000030F1EBF0021002030BD5FEA545C05D1E0
:100430004000494128BF41F0004130BD14F580041F
:100440003CBF01F5801130BD01F0004545F0FE4193
:1004500041F470014FF0000030BD7FEA645C1ABFC8
:10046000194610467FEA655C1CBF0B46024650EAFF
:10047000013406BF52EA033591EA030F41F400212B
:1004800030BD00BF90F0000F04BF0021704730B5B1
:100490004FF4806404F132044FF000054FF0000186
:1004A00050E700BF90F0000F04BF0021704730B547
:1004B0004FF4806404F1320410F0004548BF40421C
:1004C0004FF000013EE700BF42004FEAE2014FEA71
:1004D00031014FEA02701FBF12F07F4393F07F4F4C
:1004E00081F06051704732F07F4208BF704793F04F
:1004F0007F4F04BF41F40021704730B54FF4607462
:1005000001F0004521F000411CE700BF50EA010264
:1005100008BF704730B54FF000050AE050EA01020D
:1005200008BF704730B511F0004502D5404261EB7D
:1005300041014FF4806404F132045FEA915C3FF4BE
:10054000D8AE4FF003025FEADC0C18BF03325FEA5B
:10055000DC0C18BF033202EBDC02C2F1200300FA0C
:1005600003FC20FA02F001FA03FE40EA0E0021FA31
:1005700002F11444BDE600BF53B94AB9002908BFCF
:1005800000281CBF4FF0FF314FF0FF3000F074B96E
:10059000ADF1080C6DE904CE00F006F8DDF804E0DA
:1005A000DDE9022304B070472DE9F047089D0446B9
:1005B0008E46002B4DD18A42944669D9B2FA82F216
:1005C00052B101FA02F3C2F1200120FA01F10CFA52
:1005D00002FC41EA030E94404FEA1C48210CBEFB8A
:1005E000F8F61FFA8CF708FB16E341EA034306FB13
:1005F00007F199420AD91CEB030306F1FF3080F0A2
:100600001F81994240F21C81023E63445B1AA4B2EE
:10061000B3FBF8F008FB103344EA034400FB07F790
:10062000A7420AD91CEB040400F1FF3380F00A81D1
:10063000A74240F207816444023840EA0640E41BC6
:1006400000261DB1D4400023C5E900433146BDE872
:10065000F0878B4209D9002D00F0EF800026C5E914
:10066000000130463146BDE8F087B3FA83F6002E2C
:100670004AD18B4202D3824200F2F980841A61EBA4
:10068000030301209E46002DE0D0C5E9004EDDE7C2
:1006900002B9FFDEB2FA82F2002A40F09280A1EBAA
:1006A0000C014FEA1C471FFA8CFE0126200CB1FBFF
:1006B000F7F307FB131140EA01410EFB03F08842F8
:1006C00008D91CEB010103F1FF3802D2884200F285
:1006D000CB804346091AA4B2B1FBF7F007FB101117
:1006E00044EA01440EFB00FEA64508D91CEB0404B5
:1006F00000F1FF3102D2A64500F2BB800846A4EB10
:100700000E0440EA03409CE7C6F12007B34022FAFA
:1007100007FC4CEA030C20FA07F401FA06F31C4329
:10072000F9404FEA1C4900FA06F3B1FBF9F8200C36
:100730001FFA8CFE09FB181140EA014108FB0EF07C
:10074000884202FA06F20BD91CEB010108F1FF3ACC
:1007500080F08880884240F28580A8F102086144D8
:10076000091AA4B2B1FBF9F009FB101144EA0141E6
:1007700000FB0EFE8E4508D91CEB010100F1FF3491
:100780006CD28E456AD90238614440EA0840A0FB29
:100790000294A1EB0E01A142C846A64656D353D0FF
:1007A0005DB1B3EB080261EB0E0101FA07F722FA23
:1007B00006F3F1401F43C5E9007100263146BDE84C
:1007C000F087C2F12003D8400CFA02FC21FA03F3AF
:1007D000914001434FEA1C471FFA8CFEB3FBF7F030
:1007E00007FB10360B0C43EA064300FB0EF69E4255
:1007F00004FA02F408D91CEB030300F1FF382FD2EE
:100800009E422DD9023863449B1B89B2B3FBF7F695
:1008100007FB163341EA034106FB0EF38B4208D96E
:100820001CEB010106F1FF3816D28B4214D9023EAF
:100830006144C91A46EA004638E72E46284605E7CD
:100840000646E3E61846F8E64B45A9D2B9EB02089E
:1008500064EB0C0E0138A3E74646EAE7204694E72E
:100860004046D1E7D0467BE7023B614432E7304661
:1008700009E76444023842E7704700BF0000000007
:1008800090F800F06DE9024520F007016FF0000CD0
:1008900010F0070491F820F040F049804FF0000478
:1008A0006FF00700D1E9002391F840F000F1080053
:1008B00082FA4CF2A4FA8CF283FA4CF3A2FA8CF38B
:1008C0004BBBD1E9022382FA4CF200F10800A4FAF2
:1008D0008CF283FA4CF3A2FA8CF3E3B9D1E9042346
:1008E00082FA4CF200F10800A4FA8CF283FA4CF37D
:1008F000A2FA8CF37BB9D1E9062301F1200182FA37
:100900004CF200F10800A4FA8CF283FA4CF3A2FA3C
:100910008CF3002BC6D0002A04BF04301A4612BA4A
:10092000B2FA82F2FDE8024500EBD2007047D1E94D
:10093000002304F00305C4F100004FEAC50514F0DC
:10094000040F91F840F00CFA05F562EA05021CBFAD
:1009500063EA050362464FF00004A9E700000000C7
:1009600001F0FF01102A2BDB10F0070F08D010F860
:10097000013B013A8B422DD010F0070F42B3F6D164
:10098000F0B441EA012141EA014122F007047FF07D
:1009900000070023F0E80256083C85EA010586EAD4
:1009A000010685FA47F5A3FA87F586FA47F6A5FA10
:1009B00087F68EB9EED1F0BC01F0FF0102F007021C
:1009C00032B110F8013B013A83EA010313B1F8D1C7
:1009D0000020704701387047002D06BF35460338A8
:1009E000073815F0010F07D1013015F4807F02BFE1
:1009F000013015F4C03F0130F0BC0138704700BF32
:100A0000844641EA000313F003036DD1403A41D319
:100A100051F8043B40F8043B51F8043B40F8043BD8
:100A200051F8043B40F8043B51F8043B40F8043BC8
:100A300051F8043B40F8043B51F8043B40F8043BB8
:100A400051F8043B40F8043B51F8043B40F8043BA8
:100A500051F8043B40F8043B51F8043B40F8043B98
:100A600051F8043B40F8043B51F8043B40F8043B88
:100A700051F8043B40F8043B51F8043B40F8043B78
:100A800051F8043B40F8043B51F8043B40F8043B68
:100A9000403ABDD2303211D351F8043B40F8043B08
:100AA00051F8043B40F8043B51F8043B40F8043B48
:100AB00051F8043B40F8043B103AEDD20C3205D318
:100AC00051F8043B40F8043B043AF9D2043208D010
:100AD000D2071CBF11F8013B00F8013B01D30B8882
:100AE00003806046704700BF082A13D38B078DD060
:100AF00010F003038AD0C3F10403D21ADB071CBF32
:100B000011F8013B00F8013B80D331F8023B20F89B
:100B1000023B7BE7043AD9D3013A11F8013B00F8D4
:100B2000013BF9D20B7803704B7843708B7883705C
:100B30006046704770B54FF0FF0C4CF4E06C1CEA57
:100B400011541DBF1CEA135594EA0C0F95EA0C0FC3
:100B500000F0DEF82C4481EA030621EA4C5123EA36
:100B60004C5350EA013518BF52EA033541F4801165
:100B700043F4801338D0A0FB02CE4FF00005E1FB18
:100B800002E506F00042E0FB03E54FF00006E1FB62
:100B900003569CF0000F18BF4EF0010EA4F1FF04A5
:100BA000B6F5007F64F5407404D25FEA4E0E6D41E5
:100BB00046EB060642EAC62141EA55514FEAC520F6
:100BC00040EA5E504FEACE2EB4F1FD0C88BFBCF572
:100BD000E06F1ED8BEF1004F08BF5FEA500E50F123
:100BE000000041EB045170BD06F0004646EA0101E9
:100BF00040EA020081EA0301B4EB5C04C2BFD4EB1B
:100C00000C0541EA045170BD41F480114FF0000E13
:100C1000013C00F3AB8014F1360FDEBF002001F081
:100C2000004170BDC4F10004203C35DA0C341BDCFB
:100C300004F11404C4F1200500FA05F320FA04F0CD
:100C400001FA05F240EA020001F0004221F0004101
:100C500010EBD37021FA04F642EB06015EEA430E74
:100C600008BF20EAD37070BDC4F10C04C4F12005A4
:100C700000FA04F320FA05F001FA04F240EA020057
:100C800001F0004110EBD37041F100015EEA430E28
:100C900008BF20EAD37070BDC4F1200500FA05F248
:100CA0004EEA020E20FA04F301FA05F243EA0203C7
:100CB00021FA04F001F0004121FA04F220EA0200D6
:100CC00000EBD3705EEA430E08BF20EAD37070BD1C
:100CD00094F0000F0FD101F00046400041EB0101FC
:100CE00011F4801F08BF013CF7D041EA060195F0DE
:100CF000000F18BF704703F00046520043EB030398
:100D000013F4801F08BF013DF7D043EA0603704784
:100D100094EA0C0F0CEA135518BF95EA0C0F0CD08F
:100D200050EA410618BF52EA4306D1D181EA0301D5
:100D300001F000414FF0000070BD50EA410606BFCF
:100D40001046194652EA430619D094EA0C0F02D114
:100D500050EA013613D195EA0C0F05D152EA033659
:100D60001CBF104619460AD181EA030101F0004177
:100D700041F0FE4141F470014FF0000070BD41F0C0
:100D8000FE4141F4780170BD70B54FF0FF0C4CF49A
:100D9000E06C1CEA11541DBF1CEA135594EA0C0FB9
:100DA00095EA0C0F00F0A7F8A4EB050481EA030E06
:100DB00052EA03354FEA013100F088804FEA0333ED
:100DC0004FF0805545EA131343EA12634FEA0222BB
:100DD00045EA111545EA10654FEA00260EF000417C
:100DE0009D4208BF964244F1FD0404F5407402D2CE
:100DF0005B084FEA3202B61A65EB03055B084FEA5F
:100E000032024FF480104FF4002CB6EB020E75EB5B
:100E1000030E22BFB61A754640EA0C005B084FEA83
:100E20003202B6EB020E75EB030E22BFB61A754600
:100E300040EA5C005B084FEA3202B6EB020E75EB4B
:100E4000030E22BFB61A754640EA9C005B084FEAC3
:100E50003202B6EB020E75EB030E22BFB61A7546D0
:100E600040EADC0055EA060E18D04FEA051545EABF
:100E700016754FEA06164FEAC30343EA52734FEA68
:100E8000C2025FEA1C1CC0D111F4801F0BD141EAE1
:100E900000014FF000004FF0004CB6E711F4801F46
:100EA00004BF01430020B4F1FD0C88BFBCF5E06F26
:100EB0003FF6AFAEB5EB030C04BFB6EB020C5FEA36
:100EC000500C50F1000041EB045170BD0EF0004E8B
:100ED0004EEA113114EB5C04C2BFD4EB0C0541EABD
:100EE000045170BD41F480114FF0000E013C90E6BA
:100EF00045EA060E8DE60CEA135594EA0C0F08BF7E
:100F000095EA0C0F3FF43BAF94EA0C0F0AD150EA7C
:100F100001347FF434AF95EA0C0F7FF425AF10460F
:100F200019462CE795EA0C0F06D152EA03353FF437
:100F3000FDAE1046194622E750EA410618BF52EAB4
:100F400043067FF4C5AE50EA41047FF40DAF52EA88
:100F500043057FF4EBAE12E74FF0FF3C06E000BF25
:100F60004FF0010C02E000BF4FF0010C4DF804CD32
:100F70004FEA410C7FEA6C5C4FEA430C18BF7FEAF2
:100F80006C5C1BD001B050EA410C0CBF52EA430C20
:100F900091EA030F02BF90EA020F0020704710F1A0
:100FA000000F91EA030F58BF994208BF90422CBF2F
:100FB000D8176FEAE37040F0010070474FEA410C28
:100FC0007FEA6C5C02D150EA013C07D14FEA430C46
:100FD0007FEA6C5CD6D152EA033CD3D05DF8040BB7
:100FE000704700BF8446104662468C4619466346E9
:100FF00000E000BF01B5FFF7B7FF002848BF10F1C0
:10100000000F01BD4DF808EDFFF7F4FF0CBF012004
:1010100000205DF808FB00BF4DF808EDFFF7EAFF80
:1010200034BF012000205DF808FB00BF4DF808ED3B
:10103000FFF7E0FF94BF012000205DF808FB00BF30
:101040004DF808EDFFF7CEFF94BF012000205DF8BA
:1010500008FB00BF4DF808EDFFF7C4FF34BF0120C7
:1010600000205DF808FB00BF4FEA410C7FEA6C5C92
:1010700002D150EA013C0AD14FEA430C7FEA6C5C92
:1010800002D152EA033C02D14FF0000070474FF00A
:10109000010070474FEA410212F5001215D211D536
:1010A0006FF47873B3EB625212D94FEAC12343F065
:1010B000004343EA505311F0004F23FA02F018BFE7
:1010C000404270474FF00000704750EA013005D1B0
:1010D00011F0004008BF6FF0004070474FF0000073
:1010E000704700BF70B50D4E0D4D761BB61006D083
:1010F000002455F8043B01349847A642F9D1094E23
:10110000094D761B0BF054F8B61006D0002455F8A4
:10111000043B01349847A642F9D170BD18C70008B6
:1011200018C7000820C7000818C70008830730B593
:1011300048D0541E002A3FD0CAB2034601E0013C09
:101140003AD303F8012B9D07F9D1032C2DD9CDB249
:1011500045EA05250F2C45EA054536D9A4F11002CC
:1011600022F00F0C03F1200EE6444FEA121C03F1AB
:10117000100242E9045542E9025510327245F8D195
:101180000CF1010214F00C0F03EB021204F00F0C2F
:1011900013D0ACF1040323F003030433134442F8E7
:1011A000045B9342FBD10CF003042CB1CAB21C4483
:1011B00003F8012B9C42FBD130BD64461346002C42
:1011C000F4D1F9E703461446BFE71A46A446E0E720
:1011D000024B13B1024800F005B870470000000050
:1011E000F1110008002301461A46184600F01EB807
:1011F00038B5084B084D5B1B9C1007D0043B1D44C1
:10120000013C55F804399847002CF9D1BDE8384025
:101210000AF0D4BF24C7000820C70008704700BFE9
:10122000704700BF704700BF704700BF2DE9F0470F
:10123000DFF880A00646DAF8000098460F4691468F
:10124000FFF7F0FF1A4B1B68D3F8484124B36568D9
:101250001F2D26DC5EB96B1C0235DAF800006360D6
:1012600044F82570FFF7E0FF0020BDE8F08704EBAD
:1012700085010123C1F88890D4F88821AB401A4336
:10128000022EC4F88821C1F80881E4D1D4F88C2159
:101290001343C4F88C31DEE703F5A674C3F8484164
:1012A000D5E7DAF80000FFF7BFFF4FF0FF30DCE7CB
:1012B000C8C200083004002080B400AF00BFBD46A3
:1012C0005DF8047B7047000080B500AF134B1B68CE
:1012D000124A23F00C031360104B1B680F4A43F0B3
:1012E00004031360012202210C4803F077FB012262
:1012F00001210A4803F072FB042001F069F8002282
:101300000221064803F06AFB042001F061F8002284
:101310000121024803F062FB00BF80BD00080048C5
:1013200080B500AF134B1B68124A23F00C03136007
:10133000104B1B680F4A43F0040313600022022184
:101340000C4803F04BFB012201210A4803F046FB45
:10135000042001F03DF801220221064803F03EFB83
:10136000042001F035F800220121024803F036FB89
:1013700000BF80BD0008004880B582B000AF0023E8
:10138000FB711B4B1B681A4A23F00C031360184BAC
:10139000174A1B68136001220221154803F01EFB47
:1013A000022001F015F801220121114803F016FB7B
:1013B000022001F00DF809E0FB790133FB71FB79A4
:1013C000FA2B03D9FFF7ACFF03230CE002210848F6
:1013D00003F0ECFA0346002BEED100220121044871
:1013E00003F0FCFA002318460837BD4680BD00BF55
:1013F0000008004880B500AF00220121124803F028
:10140000EDFA114B1B68104A23F00C0313600E4BCE
:101410001B680D4A43F004031360002202210A48AE
:1014200003F0DCFA022000F0D3FF0122012106487C
:1014300003F0D4FA022000F0CBFF00220121024881
:1014400003F0CCFA00BF80BD0008004880B500AFB3
:1014500000220121124803F0C1FA114B1B68104A07
:1014600023F00C0313600E4B1B680D4A43F004037A
:101470001360012202210A4803F0B0FA022000F0B2
:10148000A7FF01220121064803F0A8FA022000F07C
:101490009FFF00220121024803F0A0FA00BF80BD97
:1014A0000008004880B584B000AF0346FB711D4BB7
:1014B0001B681C4A23F00C0313601A4B1B68194A63
:1014C00043F00403136000220121164803F086FA5A
:1014D0000023FB731DE0FB79DB09DBB21A46022116
:1014E000104803F07BFAFB795B00FB7101220121BC
:1014F0000C4803F073FA022000F06AFF0022012179
:10150000084803F06BFA022000F062FFFB7B013316
:10151000FB73FB7B072BDED900BF00BF1037BD4636
:1015200080BD00BF0008004880B584B000AF03460E
:10153000FB710023FB731E4B1B681D4A23F00C0339
:1015400013601B4B1A4A1B6813600023BB731FE018
:1015500000220121164803F041FA022000F038FF72
:1015600001220121124803F039FAFB7B5B00FB7377
:1015700002210F4803F01AFA0346002B02D0FB7B2E
:101580000133FB73022000F023FFBB7B0133BB73ED
:10159000BB7B072BDCD9FB79002B02D0FFF72AFF9E
:1015A00001E0FFF753FFFB7B18461037BD4680BDB7
:1015B0000008004880B588B000AF294B1B78002B8D
:1015C00049D107F10C0300221A605A609A60DA6070
:1015D0001A61244BDB6C234A43F00403D364214B90
:1015E000DB6C03F00403BB60BB680123FB600123D9
:1015F0003B6101237B610223BB6107F10C031946A8
:10160000194803F029F8174BDB6C164A43F0040322
:10161000D364144BDB6C03F004037B607B68022310
:10162000FB6001233B6101237B610223BB6107F166
:101630000C0319460C4803F00FF8012202210A4856
:1016400003F0CCF901220121074803F0C7F9044B4C
:1016500001221A7000E000BF2037BD4680BD00BFE8
:10166000310A0020001002400008004880B582B016
:1016700000AF0346FB710B46BB7113467B71FFF74E
:1016800023FEFB795B00DBB21846FFF70BFFFFF789
:1016900073FE0346002B01D0032318E0BB791846E4
:1016A000FFF700FFFFF768FE0346002B01D003237E
:1016B0000DE07B791846FFF7F5FEFFF75DFE034668
:1016C000002B01D0032302E0FFF72AFE0023184677
:1016D0000837BD4680BD80B584B000AF03460A46DA
:1016E000FB711346BB71FFF7EFFDFB795B00DBB2CB
:1016F0001846FFF7D7FEFFF73FFE0346002B01D049
:10170000002325E0BB791846FFF7CCFEFFF734FE37
:101710000346002B01D000231AE0FFF7D5FDFB792B
:101720005B005BB243F001035BB2DBB21846FFF72C
:10173000B9FEFFF721FE0346002B01D0002307E08E
:101740000020FFF7F1FE0346FB73FFF7E9FDFB7B8B
:1017500018461037BD4680BD80B582B000AF3A60F4
:101760001A460346FB710B46BB7113467B71FFF7AC
:10177000ABFDFB795B00DBB21846FFF793FEFFF78A
:10178000FBFD0346002B01D0032336E0BB7918464E
:10179000FFF788FEFFF7F0FD0346002B01D003237F
:1017A0002BE0FFF791FDFB795B005BB243F0010397
:1017B0005BB2DBB21846FFF775FEFFF7DDFD0346AF
:1017C000002B14D0032318E07B79012B14BF0123D5
:1017D0000023DBB21846FFF7A7FE03461A463B6814
:1017E0001A707B79013B7B713B6801333B607B79ED
:1017F000002BE9D1FFF794FD002318460837BD46BA
:1018000080BD80B483B000AF786087ED000A7B684C
:1018100093ED007A7B68D3ED047A77EE277A7B68C4
:10182000C3ED017A7B68D3ED016A7B6893ED017AA1
:101830007B68D3ED057A37EE277AC6EE877A7B6828
:10184000C3ED037A7B6893ED027A7B68D3ED036A7C
:101850007B68D3ED027A97ED006A76EE677A66EEE2
:10186000A77A77EE277A7B68C3ED027A7B68D3ED9F
:10187000037AB7EE007A37EE677A7B68D3ED017AA8
:1018800067EE277A7B68C3ED007A00BF0C37BD4650
:101890005DF8047B704780B582B000AFFFF78AFE29
:1018A00080226B216820FFF7E1FE0346FB71FB7984
:1018B000002B01D0012349E0642001F0EDFB002260
:1018C0006B216820FFF7D2FE0346FB71FB79002BEA
:1018D00001D001233AE0032000F03CF8002000F0A2
:1018E0004BF8322000F08CF8002238216820FFF7F6
:1018F000BDFE00226A216820FFF7B8FE00222321E6
:101900006820FFF7B3FE802237216820FFF7AEFE84
:1019100001221D216820FFF7A9FE75216820FFF72D
:10192000DAFE0346BB71BB79AF2B01D001230DE07A
:1019300001226B216820FFF799FE00226C216820AC
:10194000FFF794FE322000F05BF8002318460837BA
:10195000BD4680BD80B582B000AF0346FB71FB7908
:10196000DB00DBB21A461B216820FFF77FFE03462F
:1019700018460837BD4680BD80B582B000AF03462B
:10198000FB71FB79DB00DBB21A461C216820FFF7F4
:101990006DFE034618460837BD4680BD80B584B04D
:1019A00000AF0346FB800023FB73FB88BB2B02D9EF
:1019B0000123FB7319E0FB88612B02D90223FB731F
:1019C00013E0FB88292B02D90323FB730DE0FB886E
:1019D000132B02D90423FB7307E0FB88092B02D9E0
:1019E0000523FB7301E00623FB73FB7B1A461A21D8
:1019F0006820FFF73BFE034618461037BD4680BD02
:101A000080B584B000AF0346FB80FB88B3F57A7FD6
:101A100002D94FF47A73FB80FB88032B01D804238F
:101A2000FB80FB884FF47A7292FBF3F3DBB2013B4D
:101A3000FB73FB7B1A4619216820FFF717FE03464C
:101A4000FB73FB885B089BB21846FFF7A7FF0346B2
:101A50001A46FB7B1343FB73FB7B18461037BD46CE
:101A600080BD000080B582B000AF3A460623432116
:101A70006820FFF771FE0346FB71FB79002B01D054
:101A8000FB7933E03B781B021AB27B781BB213431D
:101A90001BB29AB2174BB3F912309BB2D31A9BB256
:101AA0001AB2144B1A80BB781B021AB2FB781BB215
:101AB00013431BB29AB20F4BB3F914309BB2D31A33
:101AC0009BB21AB20B4B5A803B791B021AB27B793C
:101AD0001BB213431BB29AB2064BB3F916309BB23A
:101AE000D31A9BB21AB2034B9A80002318460837C8
:101AF000BD4680BD340A002080B582B000AF3A46B2
:101B000006233B216820FFF727FE0346FB71FB7984
:101B1000002B01D0FB7933E03B781B021AB27B78B3
:101B20001BB213431BB29AB2174BB3F90C309BB2E2
:101B3000D31A9BB21AB2144BDA80BB781B021AB2CA
:101B4000FB781BB213431BB29AB20F4BB3F90E30A2
:101B50009BB2D31A9BB21AB20B4B1A813B791B0270
:101B60001AB27B791BB213431BB29AB2064BB3F97C
:101B700010309BB2D31A9BB21AB2034B5A81002386
:101B800018460837BD4680BD340A002080B582B0B3
:101B900000AF0023FB71FFF7AFFF03461A46FB7946
:101BA0001343FB71FFF75EFF03461A46FB791343AD
:101BB000FB71FB79002B01D00123BFE0614BB3F92E
:101BC000063007EE903AF8EEE77AB0EE670A5E4824
:101BD000FFF717FE5C4BD3ED027AFCEEE77A17EEC7
:101BE000903A9BB21AB2574BDA80564BB3F9083091
:101BF00007EE903AF8EEE77AB0EE670A5348FFF73F
:101C000000FE514BD3ED087AFCEEE77A17EE903ADE
:101C10009BB21AB24B4B1A814A4BB3F90A3007EE0A
:101C2000903AF8EEE77AB0EE670A4948FFF7E9FD27
:101C3000454BD3ED0E7AFCEEE77A17EE903A9BB265
:101C40001AB2404B5A81434B3B60434BB3F90030CF
:101C500007EE903AB8EEE77AF7EE006AD7ED007A31
:101C600076EEE77A27EE277A364BB3F9003007EEA7
:101C7000903AF8EEE76AD7ED007A66EEA77A77EE4B
:101C8000277AFDEEE77A17EE903A1AB2324B1A80B5
:101C9000314BB3F900202B4B1A802F4BB3F9023094
:101CA00007EE903AB8EEE77AF7EE006AD7ED007AE1
:101CB00076EEE77A27EE277A224BB3F9023007EE69
:101CC000903AF8EEE76AD7ED007A66EEA77A77EEFB
:101CD000277AFDEEE77A17EE903A1AB21E4B5A8039
:101CE0001D4BB3F90220174B5A801B4BB3F904303C
:101CF00007EE903AB8EEE77AF7EE006AD7ED007A91
:101D000076EEE77A27EE277A0E4BB3F9043007EE2A
:101D1000903AF8EEE76AD7ED007A66EEA77A77EEAA
:101D2000277AFDEEE77A17EE903A1AB20A4B9A80BC
:101D3000094BB3F90420034B9A8000231846083757
:101D4000BD4680BD340A0020340400204C0400202D
:101D5000640400209A99193E940A002080B58CB042
:101D600000AF05237B854FF6FB733B8507F120030E
:101D700000221A609A80754B00229A81734B4FF4AF
:101D80000052DA81714B00221A82704B00225A8273
:101D90006E4B00229A826D4B0022DA821E2387F856
:101DA0002F3064E0FFF7F2FE0346002B01D0012341
:101DB000C7E0664BB3F900309AB2B7F920309BB256
:101DC000D31A9BB21BB23B83604BB3F902309AB279
:101DD000B7F922309BB2D31A9BB21BB27B835B4B09
:101DE000B3F904309AB2B7F924309BB2D31A9BB23C
:101DF0001BB2BB83554A07F1200392E80300186029
:101E000004331980B7F91830B7F92A209A421DDB3C
:101E1000B7F91830B7F928209A4217DCB7F91A3009
:101E2000B7F92A209A4211DBB7F91A30B7F92820FE
:101E30009A420BDCB7F91C30B7F92A209A4205DB2D
:101E4000B7F91C30B7F928209A420DDD1E2387F818
:101E50002F30B7F918301946B7F91A301A46B7F9C2
:101E60001C303B4804F0E4F90A2001F015F997F919
:101E70002F30DAB2013AD2B287F82F20002B91D15D
:101E80003B4600221A605A609A60DA601A615A6111
:101E90000023BB8531E0FFF779FEB7F92C30632BC7
:101EA00024DD3B68294AB2F9062013443B607B6875
:101EB000264AB2F9082013447B60BB68234AB2F972
:101EC0000A201344BB60FB68204AB2F90020134487
:101ED000FB603B691D4AB2F9022013443B617B69F8
:101EE0001A4AB2F9042013447B6100E000BFB7F93D
:101EF0002C309BB201339BB2BB85B7F92C30B3F5C4
:101F0000B27FC8DB3B681B0A1AB2104B9A817B6810
:101F10001B0A1AB20D4BDA81BB681B0A1AB20B4BB3
:101F20001A82FB681B0A1AB2084B5A823B691B0AC9
:101F30001AB2064B9A827B691B0A1AB2034BDA82E9
:101F4000002318463037BD4680BD00BF340A00204C
:101F5000C8C1000880B582B000AF01F029F800F0D8
:101F6000CBF800F019F900F04FFA00F055F900F045
:101F7000A7F9FFF790FC0023FB710023BB71FFF76B
:101F8000EDFE0346BB71BB79002B16D000228021E9
:101F9000524802F023FD01224FF480714F4802F0B5
:101FA0001DFD01224FF400714C4802F017FD012382
:101FB000FB714B4804F09EF92EE001228021474836
:101FC00002F00CFD00224FF48071444802F006FD3F
:101FD00001224FF40071414802F000FD0023FB7123
:101FE000404BB3F90C3019463E4BB3F90E301A464C
:101FF0003C4BB3F910303C4804F01AF9394BB3F9B3
:1020000012301946374BB3F914301A46354BB3F931
:102010001630364804F00CF9FB79012B14D101225B
:1020200080212E4802F0DAFC01224FF480712B4807
:1020300002F0D4FC4FF40071284802F0E7FC4FF4A2
:102040007A7001F029F848E0FFF7A0FD0346BB7164
:10205000BB79002B11D000228021204802F0BEFC69
:1020600001224FF480711D4802F0B8FC01224FF4A8
:1020700000711A4802F0B2FC2CE0012280211748BE
:1020800002F0ACFC00224FF48071144802F0A6FC70
:1020900001224FF40071114802F0A0FC114BB3F97A
:1020A000063019460F4BB3F908301A460D4BB3F9F9
:1020B0000A300F4804F0BCF80A4BB3F90030194657
:1020C000084BB3F902301A46064BB3F904300948FD
:1020D00004F0AEF8142000F0DFFF9DE70010004888
:1020E000E4C10008340A0020ECC1000828C200083E
:1020F00060C2000884C2000880B596B000AF07F146
:102100001403442200211846FFF710F83B46002232
:102110001A605A609A60DA601A614FF4007002F037
:102120001DFD0346002B01D000F02CF810237B612D
:102130000123FB6200233B6360237B630023FB637B
:1021400007F11403184600F0CBFF0346002B01D023
:1021500000F018F80F233B6000237B600023BB6076
:102160000023FB6000233B613B460021184601F041
:1021700093FB0346002B01D000F004F800BF583752
:10218000BD4680BD80B500AF024804F0B3F872B61A
:1021900000BFFEE7A8C2000880B588B000AF07F115
:1021A0000C0300221A605A609A60DA601A61184BB8
:1021B000DB6C174A43F01003D364154BDB6C03F060
:1021C0001003BB60BB68124BDB6C114A43F0010388
:1021D000D3640F4BDB6C03F001037B607B6801224F
:1021E0004FF460710B4802F0F9FB4FF46073FB6031
:1021F00001233B6101237B610023BB6107F10C03D9
:102200001946044802F028FA00BF2037BD4680BDB9
:10221000001002400010004880B588B000AF07F100
:10222000100300221A605A609A60DA603B1D002297
:102230001A605A609A60204B204A1A601E4B502246
:102240005A601D4B00229A601B4B4FF6FF72DA60FA
:10225000194B00221A61184B00225A61164B0022BA
:102260009A61154800F0F0F90346002B01D0FFF702
:1022700089FF4FF480533B6107F1100319460E4864
:1022800000F0CBFB0346002B01D0FFF77BFF0023C0
:102290007B600023BB600023FB603B1D19460648A2
:1022A00000F0E0FD0346002B01D0FFF76BFF00BFFD
:1022B0002037BD4680BD00BF9C0A0020002C014095
:1022C00080B588B000AF07F1100300221A605A6091
:1022D0009A60DA603B1D00221A605A609A601D4BBA
:1022E0001D4A1A601B4B50225A601A4B00229A60FA
:1022F000184B4FF0FF32DA60164B00221A61154B73
:1023000000229A61134800F09FF90346002B01D088
:10231000FFF738FF4FF480533B6107F11003194674
:102320000C4800F07AFB0346002B01D0FFF72AFF90
:1023300000237B600023FB603B1D1946054800F02D
:1023400091FD0346002B01D0FFF71CFF00BF203793
:10235000BD4680BDE80A0020000C004080B584B076
:1023600000AF78607B681B68164A93420CD1164B0D
:102370001B6E154A43F400631366134B1B6E03F484
:102380000063FB60FB6818E07B681B680F4A9342A0
:1023900013D10D4B9B6D0C4A43F0080393650A4B18
:1023A0009B6D03F00803BB60BB6800220021322054
:1023B00002F005FD322002F01EFD00BF1037BD46C1
:1023C00080BD00BF002C014000100240000C004006
:1023D00080B582B000AF0346FB800A4B1B68002229
:1023E0005A62084800F088F900BF064B1B685A6A19
:1023F000FB889A42F9D3034800F0E6F900BF08379A
:10240000BD4680BD9C0A002080B500AF144B154A24
:102410001A60134B4FF4E1325A60114B00229A605C
:102420000F4B0022DA600E4B00221A610C4B0C227B
:102430005A610B4B00229A61094B0022DA61084B6A
:1024400000221A62064B00225A62054802F0EDFC97
:102450000346002B01D0FFF795FE00BF80BD00BFF3
:10246000340B00200038014080B5ACB000AF78607C
:1024700007F19C0300221A605A609A60DA601A61C0
:1024800007F11403882200211846FEF74FFE7B68EF
:102490001B68264A934244D101237B610023FB64DD
:1024A00007F11403184601F01BFC0346002B01D072
:1024B000FFF768FE1E4B1B6E1D4A43F480431366F4
:1024C0001B4B1B6E03F480433B613B69184BDB6C79
:1024D000174A43F00103D364154BDB6C03F001038F
:1024E000FB60FB684FF4C063C7F89C300223C7F859
:1024F000A0300023C7F8A4300323C7F8A83007236F
:10250000C7F8AC3007F19C0319464FF0904002F039
:10251000A3F800220021252002F051FC252002F022
:102520006AFC00BFB037BD4680BD00BF0038014027
:102530000010024080B584B000AF78607B68DBB2E9
:102540003B7307F10C014FF6FF730122034802F0C1
:10255000BAFC7B6818461037BD4680BD340B00209E
:1025600080B400AFFEE780B400AFFEE780B400AFF8
:10257000FEE780B400AFFEE780B400AFFEE780B4B2
:1025800000AF00BFBD465DF8047B704780B400AF6C
:1025900000BFBD465DF8047B704780B400AF00BF4C
:1025A000BD465DF8047B704780B500AF00F054FD78
:1025B00000BF80BD80B500AF024802F00FFD00BF34
:1025C00080BD00BF340B002080B500AF024800F092
:1025D00022F900BF80BD00BFE80A002080B582B0AC
:1025E00000AF78607B681B68044A934201D1FEF714
:1025F00063FE00BF0837BD4680BD00BF000C004031
:1026000080B483B000AF0F4B1B6E0E4A43F0010342
:1026100013660C4B1B6E03F001037B607B68094B58
:102620009B6D084A43F080539365064B9B6D03F006
:1026300080533B603B6800BF0C37BD465DF8047BB0
:10264000704700BF0010024080B582B000AF7860D4
:102650007B68002B01D1012349E07B6893F83D3072
:10266000DBB2002B06D17B68002283F83C2078681F
:10267000FFF774FE7B68022283F83D207B681A68AE
:102680007B6804331946104600F0B8FA7B680122D3
:1026900083F848207B68012283F83E207B68012272
:1026A00083F83F207B68012283F840207B68012269
:1026B00083F841207B68012283F842207B68012255
:1026C00083F843207B68012283F844207B68012241
:1026D00083F845207B68012283F846207B6801222D
:1026E00083F847207B68012283F83D2000231846A9
:1026F0000837BD4680BD000080B485B000AF78606B
:102700007B6893F83D30DBB2012B01D0012347E019
:102710007B68022283F83D207B681B68234A934232
:102720001DD07B681B68B3F1804F18D07B681B6895
:102730001F4A934213D07B681B681E4A93420ED0F7
:102740007B681B681C4A934209D07B681B681B4A44
:10275000934204D07B681B68194A934215D17B6869
:102760001B689A68174B1340FB60FB68062B15D05B
:10277000FB68B3F5803F11D07B681B681A687B68E3
:102780001B6842F001021A6008E07B681B681A6847
:102790007B681B6842F001021A6000E000BF002362
:1027A00018461437BD465DF8047B7047002C014085
:1027B0000004004000080040000C004000340140CC
:1027C000004001400700010080B483B000AF786092
:1027D0007B681B681A6A41F211131340002B0FD15A
:1027E0007B681B681A6A40F244431340002B07D1F0
:1027F0007B681B681A687B681B6822F001021A60FC
:102800007B68012283F83D20002318460C37BD4623
:102810005DF8047B704780B584B000AF78607B685A
:102820001B68DB68FB607B681B681B69BB60BB685F
:1028300003F00203002B20D0FB6803F00203002BFF
:102840001BD07B681B686FF002021A617B68012253
:102850001A777B681B689B6903F00303002B03D086
:10286000786800F0ADF905E0786800F09FF97868C5
:1028700000F0B0F97B6800221A77BB6803F004030C
:10288000002B20D0FB6803F00403002B1BD07B68D7
:102890001B686FF004021A617B6802221A777B685A
:1028A0001B689B6903F44073002B03D0786800F029
:1028B00087F905E0786800F079F9786800F08AF91E
:1028C0007B6800221A77BB6803F00803002B20D036
:1028D000FB6803F00803002B1BD07B681B686FF0BC
:1028E00008021A617B6804221A777B681B68DB691F
:1028F00003F00303002B03D0786800F061F905E0D2
:10290000786800F053F9786800F064F97B68002279
:102910001A77BB6803F01003002B20D0FB6803F08C
:102920001003002B1BD07B681B686FF010021A612C
:102930007B6808221A777B681B68DB6903F44073A5
:10294000002B03D0786800F03BF905E0786800F0D0
:102950002DF9786800F03EF97B6800221A77BB6891
:1029600003F00103002B0CD0FB6803F00103002BE4
:1029700007D07B681B686FF001021A617868FFF767
:102980002DFEBB6803F08003002B0CD0FB6803F026
:102990008003002B07D07B681B686FF080021A61F0
:1029A000786800F0F1FABB6803F48073002B0CD058
:1029B000FB6803F08003002B07D07B681B686FF473
:1029C00080721A61786800F0E9FABB6803F040038E
:1029D000002B0CD0FB6803F04003002B07D07B6872
:1029E0001B686FF040021A61786800F0FDF8BB6860
:1029F00003F02003002B0CD0FB6803F02003002B16
:102A000007D07B681B686FF020021A61786800F0BD
:102A1000B1FA00BF1037BD4680BD80B584B000AFAD
:102A2000786039600023FB737B6893F83C30012B9E
:102A300001D10223B6E07B68012283F83C207B6849
:102A4000022283F83D207B681B689B68BB60BB68E3
:102A500023F4803323F07703BB60BB6823F47F4308
:102A6000BB607B681B68BA689A603B681B68B3F5FB
:102A7000005F3ED0B3F5005F00F28780B3F5805F62
:102A800000F08680B3F5805F7FD8702B1AD0702B52
:102A90007BD8602B50D0602B77D8502B3CD0502B5C
:102AA00073D8402B58D0402B6FD8302B64D0302BAC
:102AB0006BD8202B60D0202B67D8002B5CD0102B3C
:102AC0005AD062E07B6818683B6899683B685A682E
:102AD0003B68DB6800F0A6F97B681B689B68BB60FD
:102AE000BB6843F07703BB607B681B68BA689A6079
:102AF0004FE07B6818683B6899683B685A683B6898
:102B0000DB6800F08FF97B681B689A687B681B683C
:102B100042F480429A603CE07B6818683B685968E0
:102B20003B68DB681A4600F003F97B681B6850219C
:102B3000184600F05CF92CE07B6818683B6859681F
:102B40003B68DB681A4600F022F97B681B6860214D
:102B5000184600F04CF91CE07B6818683B6859681F
:102B60003B68DB681A4600F0E3F87B681B6840218D
:102B7000184600F03CF90CE07B681A683B681B685B
:102B80001946104600F033F903E00123FB7300E01F
:102B900000BF7B68012283F83D207B68002283F818
:102BA0003C20FB7B18461037BD4680BD80B483B007
:102BB00000AF786000BF0C37BD465DF8047B7047FE
:102BC00080B483B000AF786000BF0C37BD465DF8BD
:102BD000047B704780B483B000AF786000BF0C37CF
:102BE000BD465DF8047B704780B483B000AF786069
:102BF00000BF0C37BD465DF8047B704780B485B0DC
:102C000000AF786039607B681B68FB607B68404A76
:102C1000934213D07B68B3F1804F0FD07B683D4A5D
:102C200093420BD07B683C4A934207D07B683B4A77
:102C3000934203D07B683A4A934208D1FB6823F061
:102C40007003FB603B685B68FA681343FB607B685A
:102C50002F4A93421FD07B68B3F1804F1BD07B6813
:102C60002C4A934217D07B682B4A934213D07B683F
:102C70002A4A93420FD07B68294A93420BD07B6843
:102C8000284A934207D07B68274A934203D07B6847
:102C9000264A934208D1FB6823F44073FB603B68EB
:102CA000DB68FA681343FB60FB6823F080023B6833
:102CB0005B691343FB607B68FA681A603B689A683B
:102CC0007B68DA623B681A687B689A627B68104AA4
:102CD00093420FD07B68124A93420BD07B68114A13
:102CE000934207D07B68104A934203D07B680F4A17
:102CF000934203D13B681A697B681A637B6801229F
:102D00005A6100BF1437BD465DF8047B704700BFB1
:102D1000002C01400004004000080040000C00406E
:102D2000003401400040014000440140004801409F
:102D300080B487B000AFF860B9607A60FB681B6A46
:102D40007B61FB681B6A23F00102FB681A62FB6867
:102D50009B693B613B6923F0F0033B617B681B018E
:102D60003A6913433B617B6923F00A037B617A690B
:102D7000BB6813437B61FB683A699A61FB687A69B7
:102D80001A6200BF1C37BD465DF8047B704780B4F3
:102D900087B000AFF860B9607A60FB681B6A7B613E
:102DA000FB681B6A23F01002FB681A62FB689B69D0
:102DB0003B613B6923F470433B617B681B033A69C9
:102DC00013433B617B6923F0A0037B61BB681B015C
:102DD0007A6913437B61FB683A699A61FB687A6997
:102DE0001A6200BF1C37BD465DF8047B704780B493
:102DF00085B000AF786039607B689B68FB60FB68DA
:102E000023F07003FB603A68FB68134343F0070349
:102E1000FB607B68FA689A6000BF1437BD465DF8B6
:102E2000047B704780B487B000AFF860B9607A6007
:102E30003B60FB689B687B617B6923F47F437B611C
:102E40003B681A027B681A43BB6813437A691343D1
:102E50007B61FB687A699A6000BF1C37BD465DF8EC
:102E6000047B704780B485B000AF786039607B68C0
:102E700093F83C30012B01D1022368E07B680122EA
:102E800083F83C207B68022283F83D207B681B6826
:102E90005B68FB607B681B689B68BB607B681B682A
:102EA0002E4A934204D07B681B682D4A934208D176
:102EB000FB6823F47003FB603B685B68FA681343AC
:102EC000FB60FB6823F07003FB603B681B68FA68DB
:102ED0001343FB607B681B68FA685A607B681B6859
:102EE0001E4A93421DD07B681B68B3F1804F18D0F7
:102EF0007B681B681B4A934213D07B681B681A4A85
:102F000093420ED07B681B68184A934209D07B68B5
:102F10001B68134A934204D07B681B68144A93428F
:102F20000CD1BB6823F08003BB603B689B68BA6828
:102F30001343BB607B681B68BA689A607B68012298
:102F400083F83D207B68002283F83C20002318464C
:102F50001437BD465DF8047B704700BF002C01406C
:102F6000003401400004004000080040000C004014
:102F70000040014080B483B000AF786000BF0C37E0
:102F8000BD465DF8047B704780B483B000AF7860C5
:102F900000BF0C37BD465DF8047B704780B483B03A
:102FA00000AF786000BF0C37BD465DF8047B70470A
:102FB00080B582B000AF0023FB71032001F0F4FE66
:102FC0000F2000F00DF80346002B02D00123FB7107
:102FD00001E0FFF715FBFB7918460837BD4680BDB9
:102FE00080B584B000AF78600023FB73174B1B786B
:102FF000002B23D0164B1A68144B1B7819464FF43C
:103000007A73B3FBF1F3B2FBF3F3184601F001FF5F
:103010000346002B0FD17B680F2B09D8002279685B
:103020004FF0FF3001F0CBFE0A4A7B68136007E0E7
:103030000123FB7304E00123FB7301E00123FB7315
:10304000FB7B18461037BD4680BD00BF80040020C2
:10305000840400207C04002080B400AF064B1B7861
:103060001A46064B1B681344044A136000BFBD4652
:103070005DF8047B704700BF80040020BC0B00207B
:1030800080B400AF034B1B681846BD465DF8047B57
:10309000704700BFBC0B002080B584B000AF7860E3
:1030A000FFF7EEFFB8607B68FB60FB68B3F1FF3FA2
:1030B00005D00A4B1B781A46FB681344FB6000BF1F
:1030C000FFF7DEFF0246BB68D31AFA689A42F7D8C8
:1030D00000BF00BF1037BD4680BD00BF8004002088
:1030E00080B588B000AF78607B68002B01D10123E8
:1030F000CAE3974B9B6803F00C03BB61944BDB68FE
:1031000003F003037B617B681B6803F01003002B53
:1031100000F0E480BB69002B07D0BB690C2B40F0AA
:103120008B807B69012B40F08780894B1B6803F003
:103130000203002B05D07B689B69002B01D1012382
:10314000A2E37B681A6A824B1B6803F00803002B1A
:1031500004D07F4B1B6803F0F00305E07C4BD3F8F1
:1031600094301B0903F0F003934223D27B681B6A5F
:10317000184600F055FD0346002B01D0012383E3E0
:10318000734B1B68724A43F008031360704B1B6853
:1031900023F0F0027B681B6A6D4913430B606C4B94
:1031A0005B6823F47F427B68DB691B026849134339
:1031B0004B6025E0664B1B68654A43F008031360CB
:1031C000634B1B6823F0F0027B681B6A6049134362
:1031D0000B605F4B5B6823F47F427B68DB691B02FB
:1031E0005B4913434B60BB69002B09D17B681B6AA9
:1031F000184600F015FD0346002B01D0012343E3E0
:1032000000F04AFC0246524B9B681B0903F00F0377
:103210005049CB5C03F01F0322FA03F34E4A1360BC
:103220004E4B1B681846FFF7DBFE0346FB73FB7B28
:10323000002B52D0FB7B27E37B689B69002B32D0AD
:10324000434B1B68424A43F001031360FFF718FF2A
:10325000386108E0FFF714FF02463B69D31A022BDE
:1032600001D9032310E33A4B1B6803F00203002B40
:10327000F0D0374B1B68364A43F008031360344BD9
:103280001B6823F0F0027B681B6A314913430B6013
:103290002F4B5B6823F47F427B68DB691B022C4960
:1032A00013434B601AE02A4B1B68294A23F00103A1
:1032B0001360FFF7E5FE386108E0FFF7E1FE024624
:1032C0003B69D31A022B01D90323DDE2204B1B6893
:1032D00003F00203002BF0D100E000BF7B681B6805
:1032E00003F00103002B74D0BB69082B05D0BB6928
:1032F0000C2B0ED17B69032B0BD1154B1B6803F4F0
:103300000033002B64D07B685B68002B60D1012305
:10331000BAE27B685B68B3F5803F06D10C4B1B6853
:103320000B4A43F48033136026E07B685B68B3F597
:10333000A02F15D1064B1B68054A43F48023136068
:10334000034B1B68024A43F48033136014E000BF50
:1033500000100240CCC20008840400207C0400203D
:10336000A04B1B689F4A23F4803313609D4B1B685E
:103370009C4A23F4802313607B685B68002B13D086
:10338000FFF77EFE386108E0FFF77AFE02463B69F0
:10339000D31A642B01D9032376E2924B1B6803F402
:1033A0000033002BF0D014E0FFF76AFE386108E02C
:1033B000FFF766FE02463B69D31A642B01D903234B
:1033C00062E2884B1B6803F40033002BF0D100E06D
:1033D00000BF7B681B6803F00203002B60D0BB6951
:1033E000042B05D0BB690C2B19D17B69022B16D19C
:1033F0007C4B1B6803F48063002B05D07B68DB6883
:10340000002B01D101233FE2764B5B6823F0F85299
:103410007B681B691B06734913434B6040E07B6864
:10342000DB68002B23D06F4B1B686E4A43F480731C
:103430001360FFF725FE386108E0FFF721FE024622
:103440003B69D31A022B01D903231DE2654B1B688C
:1034500003F48063002BF0D0624B5B6823F0F852DA
:103460007B681B691B065F4913434B6018E05D4B8B
:103470001B685C4A23F480731360FFF701FE386118
:1034800008E0FFF7FDFD02463B69D31A022B01D984
:103490000323F9E1534B1B6803F48063002BF0D145
:1034A0007B681B6803F00803002B3CD07B685B69DA
:1034B000002B1CD04B4BD3F894304A4A43F0010305
:1034C000C2F89430FFF7DCFD386108E0FFF7D8FD63
:1034D00002463B69D31A022B01D90323D4E1414BA5
:1034E000D3F8943003F00203002BEFD01BE03D4BE8
:1034F000D3F894303B4A23F00103C2F89430FFF72D
:10350000BFFD386108E0FFF7BBFD02463B69D31AF7
:10351000022B01D90323B7E1324BD3F8943003F0E7
:103520000203002BEFD17B681B6803F00403002B20
:1035300000F0A6800023FB772A4B9B6D03F080539D
:10354000002B0DD1274B9B6D264A43F0805393658A
:10355000244B9B6D03F08053BB60BB680123FB775A
:10356000214B1B6803F48073002B18D11E4B1B6882
:103570001D4A43F480731360FFF782FD386108E051
:10358000FFF77EFD02463B69D31A022B01D90323C4
:103590007AE1154B1B6803F48073002BF0D07B6835
:1035A0009B68012B08D10F4BD3F890300D4A43F0A4
:1035B0000103C2F8903029E07B689B68052B15D188
:1035C000084BD3F89030074A43F00403C2F8903018
:1035D000044BD3F89030034A43F00103C2F8903013
:1035E00014E000BF00100240007000409C4BD3F874
:1035F00090309B4A23F00103C2F89030984BD3F8E7
:103600009030974A23F00403C2F890307B689B689F
:10361000002B16D0FFF734FD38610AE0FFF730FDCC
:1036200002463B69D31A41F28832934201D90323FF
:103630002AE18B4BD3F8903003F00203002BEDD03E
:1036400015E0FFF71DFD38610AE0FFF719FD02469E
:103650003B69D31A41F28832934201D9032313E123
:103660007F4BD3F8903003F00203002BEDD1FB7FAA
:10367000012B05D17A4B9B6D794A23F080539365DA
:103680007B689B6A002B00F0FE807B689B6A022BA4
:1036900040F0D080724BDB687B617B6903F00302F2
:1036A0007B68DB6A9A4230D17B6903F070027B68E9
:1036B0001B6B013B1B019A4227D17B6903F4FE423D
:1036C0007B685B6B1B029A421FD17B6903F400335A
:1036D0007A68926B072A14BF01220022D2B2934269
:1036E00013D17B6903F4C0027B68DB6B5B08013B91
:1036F0005B059A4209D17B6903F0C0627B681B6C51
:103700005B08013B5B069A426ED0BB690C2B69D00B
:10371000534B1B6803F08063002B05D1504B1B6893
:1037200003F08053002B01D00123ADE04C4B1B680C
:103730004B4A23F080731360FFF7A2FC386108E066
:10374000FFF79EFC02463B69D31A022B01D90323E3
:103750009AE0434B1B6803F00073002BF0D1404B01
:10376000DA68404B13407A68D16A7A68126B013A82
:10377000120111437A68526B120211437A68D26BBC
:103780005208013A520511437A68126C5208013A04
:10379000520611437A68926B120952040A43304967
:1037A0001343CB602E4B1B682D4A43F0807313608C
:1037B0002B4BDB682A4A43F08073D360FFF760FC31
:1037C000386108E0FFF75CFC02463B69D31A022B24
:1037D00001D9032358E0224B1B6803F00073002B30
:1037E000F0D050E001234FE01D4B1B6803F0007345
:1037F000002B48D11A4B1B68194A43F080731360A1
:10380000174BDB68164A43F08073D360FFF738FC30
:10381000386108E0FFF734FC02463B69D31A022BFB
:1038200001D9032330E00E4B1B6803F00073002B1B
:10383000F0D028E0BB690C2B23D0094B1B68084A49
:1038400023F080731360FFF71BFC38610CE0FFF777
:1038500017FC02463B69D31A022B05D9032313E058
:10386000001002408C809DF9094B1B6803F0007327
:10387000002BECD1064BDA680549064B1340CB60B0
:1038800001E0012300E0002318462037BD4680BD3B
:1038900000100240FCFFEEFE80B584B000AF7860FF
:1038A00039607B68002B01D10123E7E0754B1B6871
:1038B00003F007033A689A4210D9724B1B6823F051
:1038C000070270493B6813430B606E4B1B6803F0A3
:1038D00007033A689A4201D00123CFE07B681B6856
:1038E00003F00203002B10D07B689A68664B9B683C
:1038F00003F0F0039A4208D9634B9B6823F0F0026F
:103900007B689B68604913438B607B681B6803F08E
:103910000103002B4CD07B685B68032B07D15A4B0B
:103920001B6803F00073002B21D10123A6E07B6804
:103930005B68022B07D1544B1B6803F40033002B48
:1039400015D101239AE07B685B68002B07D14E4BB1
:103950001B6803F00203002B09D101238EE04A4BC0
:103960001B6803F48063002B01D1012386E0464BE2
:103970009B6823F003027B685B68434913438B60B9
:10398000FFF77EFBF8600AE0FFF77AFB0246FB6870
:10399000D31A41F28832934201D903236EE03A4BA5
:1039A0009B6803F00C027B685B689B009A42EBD13A
:1039B0007B681B6803F00203002B10D07B689A68B9
:1039C000314B9B6803F0F0039A4208D22E4B9B6860
:1039D00023F0F0027B689B682B4913438B60294BD3
:1039E0001B6803F007033A689A4210D2254B1B6804
:1039F00023F0070223493B6813430B60214B1B68EC
:103A000003F007033A689A4201D0012336E07B684D
:103A10001B6803F00403002B08D01B4B9B6823F4A6
:103A2000E0627B68DB68184913438B607B681B6826
:103A300003F00803002B09D0134B9B6823F460525A
:103A40007B681B69DB00104913438B6000F024F88E
:103A500002460D4B9B681B0903F00F030B49CB5C1F
:103A600003F01F0322FA03F3094A1360094B1B6892
:103A70001846FFF7B5FA0346FB72FB7A1846103773
:103A8000BD4680BD0020024000100240CCC20008AC
:103A9000840400207C04002080B489B000AF00239F
:103AA000FB610023BB613E4B9B6803F00C033B6151
:103AB0003B4BDB6803F00303FB603B69002B05D045
:103AC0003B690C2B21D1FB68012B1ED1344B1B68A9
:103AD00003F00803002B07D1314BD3F894301B0AB5
:103AE00003F00F03FB6105E02D4B1B681B0903F07E
:103AF0000F03FB612B4AFB6952F82330FB613B69E2
:103B0000002B0DD1FB69BB610AE03B69042B02D19C
:103B1000254BBB6104E03B69082B01D1234BBB6102
:103B20003B690C2B34D11E4BDB6803F00303BB60F5
:103B3000BB68022B03D0BB68032B03D005E01A4BF4
:103B40007B6105E0194B7B6102E0FB697B6100BF93
:103B5000134BDB681B0903F0070301337B60104B39
:103B6000DB681B0A03F07F037A6903FB02F27B68C0
:103B7000B2FBF3F37B610A4BDB685B0E03F00303DC
:103B800001335B003B607A693B68B2FBF3F3BB61D6
:103B9000BB6918462437BD465DF8047B704700BFFB
:103BA00000100240E4C200080024F40000127A0071
:103BB00080B400AF034B1B681846BD465DF8047B1C
:103BC000704700BF8404002080B500AFFFF7F0FF0E
:103BD0000246064B9B681B0A03F007030449CB5CB3
:103BE00003F01F0322FA03F3184680BD00100240C1
:103BF000DCC2000880B500AFFFF7DAFF0246064BD3
:103C00009B68DB0A03F007030449CB5C03F01F0346
:103C100022FA03F3184680BD00100240DCC20008FF
:103C200080B586B000AF786000233B612A4B9B6D66
:103C300003F08053002B03D000F082FF786114E082
:103C4000254B9B6D244A43F080539365224B9B6D1B
:103C500003F08053FB60FB6800F072FF78611E4B3D
:103C60009B6D1D4A23F0805393657B69B3F5007FFC
:103C70000BD17B68802B19D97B68A02B02D902233A
:103C80003B6113E001233B6110E07B68802B02D98C
:103C900003233B610AE07B68802B02D102233B6156
:103CA00004E07B68702B01D101233B610B4B1B6847
:103CB00023F0070209493B6913430B60074B1B685C
:103CC00003F007033A699A4201D0012300E0002380
:103CD00018461837BD4680BD001002400020024043
:103CE00080B586B000AF78600023FB740023BB74FE
:103CF0007B681B6803F40063002B41D07B685B6E1C
:103D0000B3F5400F2AD0B3F5400F24D8B3F5000F18
:103D100008D0B3F5000F1ED8002B0AD0B3F5800FE2
:103D200010D018E0864BDB68854A43F48033D360BB
:103D300015E07B6804330021184600F0BBFA034607
:103D4000FB740CE07B6820330021184600F0A6FBD2
:103D50000346FB7403E00123FB7400E000BFFB7C1F
:103D6000002B0BD1764BD3F8883023F440027B68CC
:103D70005B6E73491343C1F8883001E0FB7CBB7470
:103D80007B681B6803F48053002B41D07B689B6EDB
:103D9000B3F1407F2AD0B3F1407F24D8B3F1007F44
:103DA00008D0B3F1007F1ED8002B0AD0B3F1807F7A
:103DB00010D018E0624BDB68614A43F48033D36073
:103DC00015E07B6804330021184600F073FA0346BF
:103DD000FB740CE07B6820330021184600F05EFB8A
:103DE0000346FB7403E00123FB7400E000BFFB7C8F
:103DF000002B0BD1524BD3F8883023F040727B68F4
:103E00009B6E4F491343C1F8883001E0FB7CBB74C3
:103E10007B681B6803F40033002B00F0A0800023B4
:103E20007B74474B9B6D03F08053002B01D1012322
:103E300000E00023002B0DD0414B9B6D404A43F026
:103E4000805393653E4B9B6D03F08053BB60BB6812
:103E500001237B743B4B1B683A4A43F48073136025
:103E6000FFF70EF9F86009E0FFF70AF90246FB6870
:103E7000D31A022B02D90323FB7405E0314B1B68D4
:103E800003F48073002BEFD0FB7C002B5CD12C4B18
:103E9000D3F8903003F440737B617B69002B1FD013
:103EA0007B68D3F884307A699A4219D0244BD3F8CE
:103EB000903023F440737B61214BD3F89030204A3B
:103EC00043F48033C2F890301D4BD3F890301C4A35
:103ED00023F48033C2F89030194A7B69C2F89030DD
:103EE0007B6903F00103002B16D0FFF7C9F8F860D7
:103EF0000BE0FFF7C5F80246FB68D31A41F288329F
:103F0000934202D90323FB7406E00D4BD3F89030A3
:103F100003F00203002BECD0FB7C002B0CD1084BF0
:103F2000D3F8903023F440727B68D3F8843004498E
:103F30001343C1F8903009E0FB7CBB7406E000BF7E
:103F40000010024000700040FB7CBB747B7C012BA6
:103F500005D19E4B9B6D9D4A23F0805393657B68F2
:103F60001B6803F00103002B0AD0984BD3F888306C
:103F700023F003027B689B6B94491343C1F888309C
:103F80007B681B6803F00203002B0AD08F4BD3F829
:103F9000883023F00C027B68DB6B8C491343C1F83B
:103FA00088307B681B6803F00403002B0AD0874B22
:103FB000D3F8883023F030027B681B6C83491343AD
:103FC000C1F888307B681B6803F00803002B0AD017
:103FD0007E4BD3F8883023F0C0027B685B6C7B4952
:103FE0001343C1F888307B681B6803F01003002B73
:103FF0000AD0764BD3F8883023F440727B689B6CF0
:1040000072491343C1F888307B681B6803F02003B2
:10401000002B0AD06D4BD3F8883023F440627B68C4
:10402000DB6C6A491343C1F888307B681B6803F472
:104030000073002B0AD0654BD3F8883023F440225C
:104040007B68DB6D61491343C1F888307B681B686E
:1040500003F48063002B0AD05C4BD3F8883023F440
:1040600040127B681B6E59491343C1F888307B6846
:104070001B6803F04003002B0AD0544BD3F8883060
:1040800023F440527B681B6D50491343C1F88830BC
:104090007B681B6803F08003002B0AD04B4BD3F8DE
:1040A000883023F440427B685B6D48491343C1F874
:1040B00088307B681B6803F48073002B0AD0434B65
:1040C000D3F8883023F440327B689B6D3F4913431B
:1040D000C1F888307B681B6803F40053002B28D09C
:1040E0003A4BD3F8883023F040627B68DB6E374967
:1040F0001343C1F888307B68DB6EB3F1006F06D1E3
:10410000324BDB68314A43F48013D36011E07B68A3
:10411000DB6EB3F1806F0CD17B680433012118464C
:1041200000F0C8F80346FB74FB7C002B01D0FB7C3D
:10413000BB747B681B6803F40023002B28D0234B3F
:10414000D3F8883023F040627B681B6F1F4913430C
:10415000C1F888307B681B6FB3F1006F06D11B4B31
:10416000DB681A4A43F48013D36011E07B681B6F4D
:10417000B3F1806F0CD17B6804330121184600F045
:1041800099F80346FB74FB7C002B01D0FB7CBB74CD
:104190007B681B6803F48023002B2BD00B4BD3F8D8
:1041A000883023F040627B685B6F08491343C1F895
:1041B00088307B685B6FB3F1006F09D1034BDB681C
:1041C000024A43F48013D36014E000BF00100240A1
:1041D0007B685B6FB3F1806F0CD17B680433012186
:1041E000184600F067F80346FB74FB7C002B01D0F7
:1041F000FB7CBB747B681B6803F48043002B2FD0CF
:104200002B4BD3F8883023F040527B689B6F2849B2
:104210001343C1F888307B689B6FB3F1805F0DD189
:104220007B6804330221184600F044F80346FB740F
:10423000FB7C002B14D0FB7CBB7411E07B689B6F74
:10424000B3F1005F0CD17B6820330221184600F0E7
:1042500025F90346FB74FB7C002B01D0FB7CBB746F
:104260007B681B6803F40043002B0AD0104BD3F883
:10427000883023F080427B68DB6F0D491343C1F81F
:1042800088307B681B6803F48033002B0BD0084B0D
:10429000D3F8883023F000427B68D3F8803004499B
:1042A0001343C1F88830BB7C18461837BD4680BD23
:1042B0000010024080B584B000AF78603960002300
:1042C000FB73754BDB6803F00303002B18D0724BB4
:1042D000DB6803F003027B681B689A420DD17B68A0
:1042E0001B68002B09D06C4BDB681B0903F007032C
:1042F0005A1C7B685B689A4247D00123FB7344E0F9
:104300007B681B68032B18D0032B25D8012B02D008
:10431000022B09D020E0604B1B6803F00203002B46
:104320001DD10123FB731AE05B4B1B6803F4806310
:10433000002B16D10123FB7313E0574B1B6803F4CA
:104340000033002B0FD1544B1B6803F48023002B48
:1043500009D10123FB7306E00123FB7304E000BFD6
:1043600002E000BF00E000BFFB7B002B0DD14A4BF9
:10437000DB6823F073027B6819687B685B68013B2C
:104380001B010B4344491343CB60FB7B002B7DD1C6
:10439000414B1B68404A23F080631360FEF770FEB8
:1043A000B86009E0FEF76CFE0246BB68D31A022B28
:1043B00002D90323FB7305E0374B1B6803F000634E
:1043C000002BEFD1FB7B002B60D13B68002B11D180
:1043D000314B1B6923F41F3323F440737A689268CE
:1043E00011027A68D268120952040A432A49134317
:1043F0000B6127E03B68012B12D1274B1B6923F48B
:10440000C00323F4FE437A68926811027A68126945
:104410005208013A52050A431F4913430B6111E048
:104420001D4B1B6923F0C06323F4FE437A68926836
:1044300011027A6852695208013A52060A43164933
:1044400013430B61144B1B68134A43F080631360E2
:10445000FEF716FEB86009E0FEF712FE0246BB68E2
:10446000D31A022B02D90323FB7305E00A4B1B6806
:1044700003F00063002BEFD0FB7B002B06D1064B33
:104480001A697B689B69044913430B61FB7B1846DF
:104490001037BD4680BD00BF0010024080B584B01B
:1044A00000AF786039600023FB736A4BDB6803F070
:1044B0000303002B18D0674BDB6803F003027B6813
:1044C0001B689A420DD17B681B68002B09D0614B99
:1044D000DB681B0903F007035A1C7B685B689A4280
:1044E00047D00123FB7344E07B681B68032B18D083
:1044F000032B25D8012B02D0022B09D020E0554BED
:104500001B6803F00203002B1DD10123FB731AE08B
:10451000504B1B6803F48063002B16D10123FB73FF
:1045200013E04C4B1B6803F40033002B0FD1494BB5
:104530001B6803F48023002B09D10123FB7306E0E1
:104540000123FB7304E000BF02E000BF00E000BFF6
:10455000FB7B002B0DD13F4BDB6823F073027B68A4
:1045600019687B685B68013B1B010B4339491343A6
:10457000CB60FB7B002B67D1364B1B68354A23F0A1
:1045800080531360FEF77CFDB86009E0FEF778FD0C
:104590000246BB68D31A022B02D90323FB7305E042
:1045A0002C4B1B6803F00053002BEFD1FB7B002B3F
:1045B0004AD13B68002B11D1264B5B6923F41F3392
:1045C00023F440737A68926811027A68D2681209FB
:1045D00052040A431F4913434B6111E01D4B5B69B1
:1045E00023F0C06323F4FE437A68926811027A686C
:1045F00012695208013A52060A43164913434B61A5
:10460000144B1B68134A43F080531360FEF738FDC8
:10461000B86009E0FEF734FD0246BB68D31A022BEE
:1046200002D90323FB7305E00A4B1B6803F0005318
:10463000002BEFD0FB7B002B06D1064B5A697B6821
:104640005B69044913434B61FB7B18461037BD4639
:1046500080BD00BF0010024080B487B000AF78601A
:10466000396000237B617FE13B681A6801217B6927
:1046700001FA03F31340FB60FB68002B00F071812B
:104680003B685B6803F00303012B05D03B685B6864
:1046900003F00303022B30D17B689B683B617B698D
:1046A0005B00032202FA03F3DB433A6913403B61E8
:1046B0003B68DA687B695B0002FA03F33A691343EB
:1046C0003B617B683A699A607B685B683B61012269
:1046D0007B6902FA03F3DB433A6913403B613B68B1
:1046E0005B681B0903F001027B6902FA03F33A6974
:1046F00013433B617B683A695A603B685B6803F02F
:104700000303032B18D17B68DB6A3B6101227B69C1
:1047100002FA03F3DB433A6913403B613B685B6891
:10472000DB0803F001027B6902FA03F33A691343E1
:104730003B617B683A69DA623B685B6803F00303BC
:10474000032B17D07B68DB683B617B695B0003222E
:1047500002FA03F3DB433A6913403B613B689A6812
:104760007B695B0002FA03F33A6913433B617B68A0
:104770003A69DA603B685B6803F00303022B23D1DC
:104780007B69DA087B68083253F822303B617B6929
:1047900003F007039B000F2202FA03F3DB433A699D
:1047A00013403B613B681A697B6903F007039B0078
:1047B00002FA03F33A6913433B617B69DA087B68C9
:1047C0000832396943F822107B681B683B617B69BA
:1047D0005B00032202FA03F3DB433A6913403B61B7
:1047E0003B685B6803F003027B695B0002FA03F33A
:1047F0003A6913433B617B683A691A603B685B68BE
:1048000003F44033002B00F0AC805F4B1B6E5E4A1C
:1048100043F0010313665C4B1B6E03F00103BB60A6
:10482000BB685A4A7B699B08023352F823303B61CC
:104830007B6903F003039B000F2202FA03F3DB43BF
:104840003A6913403B617B68B3F1904F25D07B6898
:104850004F4A93421FD07B684E4A934219D07B68DF
:104860004D4A934213D07B684C4A93420DD07B68EB
:104870004B4A934207D07B684A4A934201D10623B0
:104880000CE007230AE0052308E0042306E00323E5
:1048900004E0022302E0012300E000237A6902F031
:1048A0000302920093403A6913433B6137497B69A5
:1048B0009B0802333A6941F823203B4B9B683B61DC
:1048C000FB68DB433A6913403B613B685B6803F478
:1048D0008013002B03D03A69FB6813433B61324AD3
:1048E0003B699360304BDB683B61FB68DB433A69B3
:1048F00013403B613B685B6803F40013002B03D05B
:104900003A69FB6813433B61274A3B69D360264BF6
:104910005B683B61FB68DB433A6913403B613B6882
:104920005B6803F40033002B03D03A69FB68134340
:104930003B611D4A3B6953601B4B1B683B61FB6835
:10494000DB433A6913403B613B685B6803F48033A7
:10495000002B03D03A69FB6813433B61124A3B6961
:1049600013607B6901337B613B681A687B6922FABB
:1049700003F3002B7FF478AE00BF00BF1C37BD46A9
:104980005DF8047B704700BF00100240000001404A
:104990000004004800080048000C004800100048CF
:1049A00000140048001800480004014080B485B09D
:1049B00000AF78600B467B807B681A697B88134068
:1049C000002B02D00123FB7301E00023FB73FB7B70
:1049D00018461437BD465DF8047B704780B483B039
:1049E00000AF78600B467B8013467B707B78002B92
:1049F00003D07A887B689A6102E07A887B689A6241
:104A000000BF0C37BD465DF8047B704780B485B0AD
:104A100000AF78600B467B807B685B69FB607A88BF
:104A2000FB6813401A04FB68D9437B880B401A4388
:104A30007B689A6100BF1437BD465DF8047B704700
:104A400080B485B000AF78600023FB737B6893F877
:104A50002530DBB2022B08D07B680422DA637B6846
:104A6000002283F82420012322E07B681B681A6857
:104A70007B681B6822F00E021A607B681B681A684C
:104A80007B681B6822F001021A607B685B6C03F094
:104A90001C027B681B6C012101FA02F25A607B68E0
:104AA000012283F825207B68002283F82420FB7BE9
:104AB00018461437BD465DF8047B704780B584B056
:104AC00000AF78600023FB737B6893F82530DBB27E
:104AD000022B05D07B680422DA630123FB7329E0F3
:104AE0007B681B681A687B681B6822F00E021A60DC
:104AF0007B681B681A687B681B6822F001021A60D9
:104B00007B685B6C03F01C027B681B6C012101FA63
:104B100002F25A607B68012283F825207B6800221C
:104B200083F824207B689B6B002B03D07B689B6BF6
:104B300078689847FB7B18461037BD4680BD00005B
:104B400080B400AF044B1B6803F4C0631846BD4635
:104B50005DF8047B704700BF0070004080B485B0F2
:104B600000AF78607B68B3F5007F30D1234B1B68C2
:104B700003F4C063B3F5007F38D0204B1B6823F4E7
:104B8000C0631E4A43F4007313601D4B1B6832223E
:104B900002FB03F31B4AA2FB03239B0C0133FB60C4
:104BA00002E0FB68013BFB60144B5B6903F480632C
:104BB000B3F5806F02D1FB68002BF2D10F4B5B691C
:104BC00003F48063B3F5806F10D103230FE00B4B28
:104BD0001B6803F4C063B3F5806F07D0074B1B68F5
:104BE00023F4C063054A43F480631360002318462E
:104BF0001437BD465DF8047B704700BF007000406D
:104C00008404002083DE1B4380B485B000AF78604D
:104C10007B6803F00703FB600C4BDB68BB60BA6882
:104C20004FF6FF031340BB60FB681A02BB681343D7
:104C300043F0BF6343F40033BB60044ABB68D360F6
:104C400000BF1437BD465DF8047B704700ED00E0FF
:104C500080B400AF044BDB681B0A03F0070318465F
:104C6000BD465DF8047B704700ED00E080B483B082
:104C700000AF0346FB7197F90730002B0BDBFB7984
:104C800003F01F02074997F907305B09012000FA7A
:104C900002F241F8232000BF0C37BD465DF8047BCB
:104CA000704700BF00E100E080B483B000AF03466E
:104CB0003960FB7197F90730002B0ADB3B68DAB2E9
:104CC0000C4997F907301201D2B20B4483F8002344
:104CD0000AE03B68DAB20849FB7903F00F03043BB2
:104CE0001201D2B20B441A7600BF0C37BD465DF8F4
:104CF000047B704700E100E000ED00E080B489B083
:104D000000AFF860B9607A60FB6803F00703FB61ED
:104D1000FB69C3F10703042B28BF0423BB61FB69B4
:104D20000433062B02D9FB69033B00E000237B61BF
:104D30004FF0FF32BB6902FA03F3DA43BB681A4053
:104D40007B699A404FF0FF317B6901FA03F3D94345
:104D50007B680B40134318462437BD465DF8047B3F
:104D60007047000080B582B000AF78607B68013B7F
:104D7000B3F1807F01D301230FE00A4A7B68013B36
:104D800053600F214FF0FF30FFF78EFF054B0022DD
:104D90009A60044B07221A60002318460837BD4664
:104DA00080BD00BF10E000E080B582B000AF786049
:104DB0007868FFF729FF00BF0837BD4680BD80B582
:104DC00086B000AF0346B9607A60FB7300237B6155
:104DD000FFF73EFF78617A68B9687869FFF78EFF60
:104DE000024697F90F3011461846FFF75DFF00BFE6
:104DF0001837BD4680BD80B582B000AF0346FB7159
:104E000097F907301846FFF731FF00BF0837BD4656
:104E100080BD80B582B000AF78607868FFF7A2FFF0
:104E2000034618460837BD4680BD80B582B000AF46
:104E300078607B68002B01D1012340E07B68DB6F49
:104E4000002B06D17B68002283F878207868FDF774
:104E50000BFB7B682422DA677B681B681A687B6817
:104E60001B6822F001021A607B685B6A002B02D08B
:104E7000786800F075FE786800F0BAFB0346012BF5
:104E800001D101231BE07B681B685A687B681B68A3
:104E900022F490425A607B681B689A687B681B68A2
:104EA00022F02A029A607B681B681A687B681B687C
:104EB00042F001021A60786800F0F4FE03461846DA
:104EC0000837BD4680BD80B58AB002AFF860B960D2
:104ED0003B601346FB80FB68DB6F202B78D1BB68FF
:104EE000002B02D0FB88002B01D1012371E0FB686D
:104EF0000022C3F88420FB682122DA67FEF7C0F89D
:104F00007861FB68FA88A3F85020FB68FA88A3F858
:104F10005220FB689B68B3F5805F08D1FB681B6972
:104F2000002B04D10023FB61BB68BB6103E0BB68BD
:104F3000FB610023BB6130E03B6800937B6900228A
:104F40008021F86800F056FF0346002B04D0FB6870
:104F50002022DA6703233CE0FB69002B0BD1BB69FD
:104F60001A88FB681B68C2F3080292B21A85BB69F3
:104F70000233BB6108E0FB691A78FB681B6892B2D8
:104F80001A85FB690133FB61FB68B3F852309BB2B1
:104F9000013B9AB2FB68A3F85220FB68B3F8523089
:104FA0009BB2002BC8D13B6800937B690022402153
:104FB000F86800F01FFF0346002B04D0FB68202296
:104FC000DA67032305E0FB682022DA67002300E0AC
:104FD000022318462037BD4680BD000080B5BAB018
:104FE00000AF78607B681B68DB69C7F8E4307B68DA
:104FF0001B681B68C7F8E0307B681B689B68C7F8B4
:10500000DC30D7F8E42040F60F031340C7F8D8305F
:10501000D7F8D830002B15D1D7F8E43003F02003AF
:10502000002B0FD0D7F8E03003F02003002B09D07D
:105030007B689B6E002B00F0AE827B689B6E78686D
:105040009847A8E2D7F8D830002B00F01781D7F89E
:10505000DC3003F00103002B06D1D7F8E020854BAC
:105060001340002B00F00A81D7F8E43003F001036D
:10507000002B11D0D7F8E03003F48073002B0BD055
:105080007B681B6801221A627B68D3F8843043F086
:1050900001027B68C3F88420D7F8E43003F00203F0
:1050A000002B11D0D7F8DC3003F00103002B0BD01C
:1050B0007B681B6802221A627B68D3F8843043F055
:1050C00004027B68C3F88420D7F8E43003F00403BB
:1050D000002B11D0D7F8DC3003F00103002B0BD0EC
:1050E0007B681B6804221A627B68D3F8843043F023
:1050F00002027B68C3F88420D7F8E43003F0080389
:10510000002B17D0D7F8E03003F02003002B05D197
:10511000D7F8DC3003F00103002B0BD07B681B6851
:1051200008221A627B68D3F8843043F008027B6857
:10513000C3F88420D7F8E43003F40063002B12D0C6
:10514000D7F8E03003F08063002B0CD07B681B683D
:105150004FF400621A627B68D3F8843043F0200277
:105160007B68C3F884207B68D3F88430002B00F080
:105170001482D7F8E43003F02003002B0DD0D7F8C9
:10518000E03003F02003002B07D07B689B6E002BE0
:1051900003D07B689B6E786898477B68D3F884302F
:1051A000C7F8D4307B681B689B6803F04003402B32
:1051B00005D0D7F8D43003F02803002B4FD07868FF
:1051C00000F07FFE7B681B689B6803F04003402B68
:1051D00041D17B681B680833C7F89C30D7F89C30F6
:1051E00053E8003FC7F89830D7F8983023F04003D1
:1051F000C7F8D0307B681B680833D7F8D020C7F8D1
:10520000A820C7F8A430D7F8A410D7F8A82041E800
:105210000023C7F8A030D7F8A030002BD9D17B6885
:105220005B6F002B13D07B685B6F134A9A637B68BC
:105230005B6F1846FFF742FC0346002B17D07B68D4
:105240005B6F9B6B7A68526F104698470FE07868E7
:1052500000F0B8F90BE0786800F0B4F907E078687E
:1052600000F0B0F97B680022C3F8842095E100BF0C
:1052700093E100BF200100048B5F00087B681B6E78
:10528000012B40F04E81D7F8E43003F01003002BDF
:1052900000F04781D7F8E03003F01003002B00F056
:1052A00040817B681B6810221A627B681B689B68C0
:1052B00003F04003402B40F0B8807B685B6F1B68B5
:1052C0005B68A7F8BE30B7F8BE30002B00F06781EE
:1052D0007B68B3F85830B7F8BE209A4280F05F81FF
:1052E0007B68B7F8BE20A3F85A207B685B6F1B6809
:1052F0001B6803F02003002B40F086807B681B684E
:10530000C7F88830D7F8883053E8003FC7F88430B2
:10531000D7F8843023F48073C7F8B8307B681B68F3
:105320001A46D7F8B830C7F89430C7F89020D7F8A5
:105330009010D7F8942041E80023C7F88C30D7F8B4
:105340008C30002BDAD17B681B6808337B677B6F5E
:1053500053E8003F3B673B6F23F00103C7F8B430CD
:105360007B681B680833D7F8B420C7F88020FB6738
:10537000F96FD7F8802041E80023BB67BB6F002B93
:10538000E1D17B681B6808333B663B6E53E8003F06
:10539000FB65FB6D23F04003C7F8B0307B681B68EA
:1053A0000833D7F8B020FA66BB66B96EFA6E41E8EA
:1053B00000237B667B6E002BE3D17B682022C3F841
:1053C00080207B6800221A667B681B68FB64FB6C8C
:1053D00053E8003FBB64BB6C23F01003C7F8AC304C
:1053E0007B681B681A46D7F8AC30BB657A65796D67
:1053F000BA6D41E800233B653B6D002BE4D17B682F
:105400005B6F1846FFF71CFB7B6802225A667B68BD
:10541000B3F858207B68B3F85A309BB2D31A9BB2CA
:105420001946786800F0D8F8B9E07B68B3F85820DE
:105430007B68B3F85A309BB2D31AA7F8CE307B689A
:10544000B3F85A309BB2002B00F0AB80B7F8CE30E7
:10545000002B00F0A6807B681B68BB63BB6B53E826
:10546000003F7B637B6B23F49073C7F8C8307B6885
:105470001B681A46D7F8C8307B643A64396C7A6C7A
:1054800041E80023FB63FB6B002BE4D17B681B68C6
:1054900008337B627B6A53E8003F3B623B6A23F040
:1054A0000103C7F8C4307B681B680833D7F8C420F1
:1054B0003A63FB62F96A3A6B41E80023BB62BB6A5C
:1054C000002BE3D17B682022C3F880207B68002278
:1054D0001A667B6800229A667B681B683B613B69A1
:1054E00053E8003FFB60FB6823F01003C7F8C030AF
:1054F0007B681B681A46D7F8C030FB61BA61B9698E
:10550000FA6941E800237B617B69002BE4D17B6869
:1055100002225A66B7F8CE301946786800F05CF877
:105520003FE0D7F8E43003F48013002B0ED0D7F817
:10553000DC3003F48003002B08D07B681B684FF439
:1055400080121A62786800F060FD2DE0D7F8E43030
:1055500003F08003002B0ED0D7F8E03003F0800377
:10556000002B08D07B68DB6E002B1CD07B68DB6EC9
:105570007868984717E0D7F8E43003F04003002B31
:1055800012D0D7F8E03003F04003002B0CD078683D
:1055900000F011FD08E000BF06E000BF04E000BF1E
:1055A00002E000BF00E000BFE837BD4680BD00BF9D
:1055B00080B483B000AF786000BF0C37BD465DF8A3
:1055C000047B704780B483B000AF786000BF0C37B5
:1055D000BD465DF8047B704780B483B000AF78604F
:1055E0000B467B8000BF0C37BD465DF8047B7047DF
:1055F0002DE9B04F8AB000AFF860002387F8223061
:10560000FB689A68FB681B691A43FB685B691A436D
:10561000FB68DB6913437B62FB681B681A68A44B59
:105620001340FA681268796A0B431360FB681B68C1
:105630005B6823F44051FB68DA68FB681B680A4327
:105640005A60FB689B697B62FB681B68994A9342BE
:1056500004D0FB681B6A7A6A13437B62FB681B6891
:105660009B6823F43061FB681B687A6A0A439A607E
:10567000FB681B68904A934226D1904BD3F8883040
:1056800003F00303032B1BD801A252F823F000BF41
:10569000A1560008B1560008A9560008B9560008DE
:1056A000012387F8233016E1022387F8233012E123
:1056B000042387F823300EE1082387F823300AE11A
:1056C000102387F8233006E1FB681B687C4A93426D
:1056D00038D17A4BD3F8883003F00C030C2B2DD83B
:1056E00001A252F823F000BF1D5700083D570008E3
:1056F0003D5700083D5700082D5700083D5700084A
:105700003D5700083D570008255700083D57000841
:105710003D5700083D57000835570008002387F81B
:105720002330D8E0022387F82330D4E0042387F81D
:105730002330D0E0082387F82330CCE0102387F80B
:105740002330C8E0FB681B685E4A934225D15B4B5F
:10575000D3F8883003F03003302B16D0302B18D814
:10576000202B0AD0202B14D8002B02D0102B08D0CD
:105770000FE0002387F82330ADE0022387F82330C1
:10578000A9E0042387F82330A5E0082387F8233015
:10579000A1E0102387F823309DE0FB681B684A4A8C
:1057A000934225D1454BD3F8883003F0C003C02B7A
:1057B00016D0C02B18D8802B0AD0802B14D8002BE1
:1057C00002D0402B08D00FE0002387F8233082E07E
:1057D000022387F823307EE0042387F823307AE021
:1057E000082387F8233076E0102387F8233072E00F
:1057F000FB681B68354A93422AD1304BD3F8883076
:1058000003F44073B3F5407F1AD0B3F5407F1BD843
:10581000B3F5007F0CD0B3F5007F15D8002B03D073
:10582000B3F5807F08D00FE0002387F8233052E0E3
:10583000022387F823304EE0042387F823304AE020
:10584000082387F8233046E0102387F8233042E00E
:10585000FB681B68174A93423AD1184BD3F888303B
:1058600003F44063B3F5406F1AD0B3F5406F1BD813
:10587000B3F5006F0CD0B3F5006F15D8002B03D033
:10588000B3F5806F08D00FE0002387F8233022E0C3
:10589000022387F823301EE0042387F823301AE020
:1058A000082387F8233016E0102387F8233012E00E
:1058B000F369FFEF00800040003801400010024013
:1058C0000044004000480040004C004000500040B0
:1058D000102387F82330FB681B689F4A93427AD1D4
:1058E00097F82330082B24D801A252F823F000BFE8
:1058F00015590008335900081D590008335900088C
:105900002359000833590008335900083359000857
:105910002B590008FEF758F9F86110E08F4BFB6136
:105920000DE0FEF7B9F8F86109E04FF40043FB61C0
:1059300005E00023FB61012387F8223000BFFB69EB
:10594000002B00F0FB80FB685A6813465B00134491
:10595000FA699A4205D3FB685B681B03FA699A42AD
:1059600003D9012387F82230E8E0FB6900221C46B6
:1059700015464FF000024FF000032B0243EA146378
:105980002202F9684968490800208846814612EBDE
:10599000080A43EB090BFB685B6800223B607A60F6
:1059A000D7E9002350465946FAF7E6FD02460B4672
:1059B0001346BB61BB69B3F5407F08D3BB69B3F540
:1059C000801F04D2FB681B68BA69DA60B6E0012365
:1059D00087F82230B2E0FB68DB69B3F5004F5ED197
:1059E00097F82330082B28D801A252F823F000BFE3
:1059F000155A00081D5A0008255A00083B5A00088D
:105A00002B5A00083B5A00083B5A00083B5A000832
:105A1000335A0008FEF7D8F8F86114E0FEF7EAF808
:105A2000F86110E04D4BFB610DE0FEF735F8F861D1
:105A300009E04FF40043FB6105E00023FB61012313
:105A400087F8223000BFFB69002B77D0FB695A0032
:105A5000FB685B685B081A44FB685B68B2FBF3F3A6
:105A6000BB61BB690F2B16D9BB69B3F5803F12D25E
:105A7000BB699BB223F00F03FB82BB695B089BB23F
:105A800003F007039AB2FB8A1343FB82FB681B688F
:105A9000FA8ADA6052E0012387F822304EE097F864
:105AA0002330082B27D801A252F823F0D15A00083E
:105AB000D95A0008E15A0008F75A0008E75A0008C6
:105AC000F75A0008F75A0008F75A0008EF5A00087A
:105AD000FEF77AF8F86114E0FEF78CF8F86110E050
:105AE0001E4BFB610DE0FDF7D7FFF86109E04FF4B5
:105AF0000043FB6105E00023FB61012387F82230AE
:105B000000BFFB69002B19D0FB685B685A08FB6972
